:100000000C942A001895000018950000189500001F
:10001000189500001895000018950000189500002C
:10002000189500001895000018950000189500001C
:10003000189500001895000018950000189500000C
:1000400018950000189500001895000018950000FC
:10005000189500008FE58DBFC8E3E0E24E2E84E0E6
:100060008EBFD4E0F4E05F2EA89584B7082E877F7A
:1000700084BF88E1992781BD91BDEEEFF3E0A0E652
:10008000B0E088278D933197E9F70E943C01662400
:1000900083E886B980E087B980E087BB379A8CE037
:1000A0000E948A018FE716E00E943301E0E8F8E041
:1000B0000E9417018FEB13E00E943301E8E8F8E09B
:1000C0000E94170107B1007E07B90E94A902A0E6AD
:1000D000B0E08D939C93E4E7F8E00E942D04E0E605
:1000E000F0E0D190E080FF2400270E94FE020E94F1
:1000F0008403EDE0F0E0AFE6B0E00E94B602EFE688
:10010000F0E00E94CF02E8E7F8E00E9420040E949D
:10011000C303EDE0F0E0ABE6B0E00E94B602ECE72E
:10012000F8E00E942D04EBE6F0E00E94CA020E9473
:100130002B03EDE0F0E0A3E6B0E00E94B602E3E6B8
:10014000F0E00E94CF02EFE6F0E00E94CA020E94B7
:100150002B03EDE0F0E0A7E6B0E00E94B602A2E6D5
:10016000B0E086B38C9300916200013011F00C94E2
:10017000D9000E9424010E941E01E6E9F8E00E94D5
:1001800017010E942201ECE9F8E00E941701E7E65E
:10019000F0E0A8E0B4E00E94CA020E94C6010E94FA
:1001A0000F0184E690E00E94B7010C9462000C9469
:1001B0000B01023011F00C940B01ECE7F8E00E9407
:1001C0002D04E7E6F0E00E94CA020E942B03EDE056
:1001D000F0E0A7E6B0E00E94B6020E9424010E946F
:1001E0001E01E2EAF8E00E9417010E942201ECE9F8
:1001F000F8E00E941701E7E6F0E0A8E0B4E00E9412
:10020000CA020E94C6010E940F0184E690E00E948B
:10021000B7010C9462000C946200F894FFCFA8E040
:10022000B4E08D91882311F06FD0FBCF08950E9428
:10023000B202802D11F068D0FACF089582E06AD022
:1002400018D014C080EC66C081E064D012D080E881
:1002500061C08FE7213039F08FEB223021F08FE839
:10026000233009F08FEC810F0C948A0180E852D082
:10027000089583E099277BC08AEF90E00E94B70140
:100280008F9A8E9A8D9A8C9A8B9A8A9A929885E0F8
:1002900090E00E94B701939897989698959A949AAF
:1002A000939AEF93FF93E5E1F0E00E94AB01FF9199
:1002B000EF91939859D0939AEF93FF93E5E1F0E093
:1002C0000E94AB01FF91EF9193984ED0939AEF93D8
:1002D000FF93E5E1F0E00E94AB01FF91EF9193986D
:1002E00043D09498939AEF93FF93E5E1F0E00E9456
:1002F000AB01FF91EF91939837D088E20BD08EE05D
:1003000009D086E007D00895929A829505D004D04E
:100310002BD008959298F9CF859510F4949A01C046
:100320009498859510F4959A01C09598859510F448
:10033000969A01C09698859510F4979A01C097985F
:10034000939AEF93FF93E5E1F0E00E94AB01FF91F8
:10035000EF91939808953197F1F70895689462F8B2
:100360000895E89462F8089581E090E000C0EF936A
:10037000FF93EE27E82BE92B31F0EAEFF0E031971D
:10038000F1F70197D1F7FF91EF9108958DE207FD05
:100390008D938F2D881F802F881F8F57082F68946B
:1003A000F7F8802F87FF15C080958395082F80E38D
:1003B0008D938EE28D93802F815228F080E38D9370
:1003C00099279C93089544270A95802F09F196D088
:1003D0001FC0805230F09EE49D9381E48D939D93E5
:1003E000EFCF4427DF92EF92FF920F938FE1801BB4
:1003F00011F0082F83D089D09EE29D930F91FF903A
:10040000EF90DF9044270395003209F4D7CF2BD02B
:100410003F93ECE9F4E038E12F2D1E2D0D2DFF2444
:10042000EE24DD244427000F111F221FA8F42F9271
:100430003F920E94B202102C0E94B202202C0E9415
:10044000B202302C0E94B2023197410DD21CE31C43
:10045000F01C3F902F9001C0339631963A9519F7D2
:100460003F9107D0AFCFDD0CEE1CFF1C0A95D9F7EA
:100470000895002719E058D08F93802B11F0039531
:1004800001C08F911A95B9F7802F882309F496CF70
:100490008F91805D8D930A95D9F792CF0065CD1D20
:1004A00080B2E60E40597307A0ACB90350D6DC0108
:1004B000286BEE0094357700CA9A3B0065CD1D008D
:1004C000B2E60E0059730700ACB90300D6DC010098
:1004D0006BEE0000357700009A3B0000CD1D000058
:1004E000E60E000073070000B9030000DC01000005
:1004F000EE000000770000003B000000F694E79457
:10050000D79447950A95D1F7089500270DD08F937A
:1005100003958F2D8E298D29842BC1F78F91805DB6
:100520008D930A95D9F74CCF1F930F93002710E2B4
:10053000440FDD1CEE1CFF1C001F802F9AE0890B6E
:1005400010F0082F43951A9599F7802F0F911F915E
:100550000895369A3699FECF369A3699FECF84B1F1
:1005600095B10895C89531960020089594E0819141
:100570008D939A95E1F70895B7FE089590E8B9161E
:1005800011F4D0FE08959FEFD91AE90AF90A09F487
:1005900003950895D190E190F190019108952191F2
:1005A0003191419151910895502F2D2D3E2D4F2D78
:1005B000612F0895D094E094F09491E0D90E99279A
:1005C000E91EF91E10950895652F90E8440F551FF8
:1005D0005927990F47956078102F90E8FF0C001F5E
:1005E0000927990FF794107800380895FF0C90E8C8
:1005F0009027110F9795F794092F08951127BD2C77
:10060000DE2CEF2CF02E0EE1FF2039F4FE2CED2C29
:10061000DB2CBB240850C2F752C032F00A95BB0C49
:10062000DD1CEE1CFF1CF9CFA7DFE0CF2DEC3CEC6E
:100630004CEC5DE366270FC0ADDFB6DFDD24EE24B2
:1006400090E8F92E0FE307C0AADF05C02227332761
:1006500040E251E46627552351F1002381F1B4DFD4
:1006600071F11627005850580894050B18F407FD2F
:1006700003C025C007FD23C0469537952795F694FE
:10068000E794D79425D0FF202AF0DD0CEE1CFF1C48
:10069000015073F09D2D969548F0DD203AF4EE2040
:1006A0002AF491E0D90E9927E91EF91E9FCF07C0C1
:1006B0009FE7092FF92A9FEFD92EE92E0895DD240F
:1006C000EE24FF240027112708950FE79FEFF2CFB4
:1006D0009F929924AA24BB2488E1D216E306F4064B
:1006E00028F0D21AE30AF40A089401C08894991CED
:1006F000AA1CBB1CDD0CEE1CFF1C8A9571F7D92CC3
:10070000EA2CFB2C9F9008955FDFD9F05038C9F098
:1007100016270058952F90580894091F12F418F4C2
:100720000EC008F00EC00FD0FF202AF0BB0CDD1C5D
:10073000EE1CFF1C02C0039513F01EDF57CF0C9474
:1007400058030C945F039F92FF92EF928D2DFF242C
:10075000EE24DD24BB2493E0849F1001829FB00C23
:10076000D11CE21CF31C839FD00CE11C2224F21C40
:100770009A9531F0BD2CDE2CEF2CFF248F91ECCF1D
:100780009F9008950CDF20DF503829F090E869270A
:100790000CC00AF045D02ACF5FE322273327442735
:1007A00001C0FDDE11DF5038B1F3003899F3902F0E
:1007B000951B8BF312F434D0FACF983118F022271E
:1007C00033274427983028F0232F342F442798507C
:1007D000F9CF992329F04695379527959A95D9F71A
:1007E000912F962742F014D0B0F6F794E794D7945F
:1007F0000F5F8BF65DCF10D051F008F4DBDEFF20E9
:1008000052F2DD0CEE1CFF1C0150CBF751CF57CF3D
:10081000D20EE31EF41E0895D21AE30AF40A0895D4
:10082000DF92EF92FF920F931F93D22EE32EF42EBE
:10083000052F162F6F915F914F913F912F91089542
:100840000E94B202D02C0E94B202E02C0E94B2029E
:10085000F02C0E94B202002D08950E94B202202DB9
:100860000E94B202302D0E94B202402D0E94B202BC
:10087000502D08952123A03B0000A04000007A44A1
:10088000504C45415345000053454C45435420527C
:10089000414E47450000204F686D00002052203D2A
:0C08A0000000204B696C6F204F686D0059
:00000001FF
